:100000005FC079C078C077C076C075C074C073C057
:1000100072C071C0B9C16FC06EC037C360C3000287
:1000200003050608090B0C0E101113141617191AE4
:100030001C1D1F202223252628292B2C2E2F313250
:1000400033353638393A3C3D3F40414344454748D3
:10005000494A4C4D4E4F51525354555658595A5B7C
:100060005C5D5E5F606162636465666768696A6A59
:100070006B6C6D6E6F6F7071717273737475757672
:100080007677787879797A7A7A7B7B7C7C7C7D7DCF
:100090007D7D7E7E7E7E7E7F7F7F7F7F7F7F7F4CAC
:1000A0004344726549446572363620323032352D0C
:1000B00030392D32362030303A31353A3332000083
:1000C00011241FBECFE5D2E0DEBFCDBF10E0A0E619
:1000D000B0E0ECE6F9E002C005900D92A63EB10753
:1000E000D9F721E0A6EEB0E001C01D92A330B2071F
:1000F000E1F7F0D339C484CF60E072E022D497FDF9
:100100009E5F8038910584F08F3F910509F03CF4A3
:1001100020E031E0A901481B590BCA01089580383D
:1001200051E09507ACF392500895E6DF20E097FF89
:1001300004C091958195910921E0825E9F4FFC0159
:100140008491211181950895811101C081E0682F6A
:1001500070E08CE990E0F5D37093620060936100E9
:10016000089560916100709162008CE990E0D5D3B0
:10017000862F089560E08FEF90E0DFC0A8950FB65E
:10018000F894A89581B5886181BD11BC0FBEC19856
:10019000B99A4FEF60E08FEF90E0D8D08CE990E013
:1001A000909362008093610014D104B603FE06C0F0
:1001B00084E090E0909362008093610004B600FCBC
:1001C00009C004B602FE06C089E090E09093620088
:1001D0008093610014BE0895A8958091020120913A
:1001E0006000022E000C330B820F932F911D8F3F66
:1001F000910534F08FEF809360008FEF90E00895C9
:100200001816190624F081E08093600080E00895BC
:100210008093E6000895FC018091E600282F2F705E
:10022000982F907F31F0211107C091E09093EC005E
:1002300003C021111092EC003091EC00332319F02F
:10024000282F22952F709091EB004091E90050915A
:10025000EA00BF01641B750BAB01892F86958217DD
:1002600078F4453C594038F0F093EA00E093E90017
:100270009F5F9093EB008091EB00809581700895D3
:1002800070E060E080E29EE4A0E0B0E0032E04C0F5
:10029000880F991FAA1FBB1F0A94D2F784179507CE
:1002A000A607B70740F71092EB00F093EA00E0933F
:1002B000E90081E0311180E08093EC00DCCFCF9247
:1002C000DF92EF92FF9296D06B018091E7009091C0
:1002D000E8009601281B390B809161009091620023
:1002E0008217930748F4D092E800C092E70074DFC9
:1002F000682F8FEF90E021D08091E600882361F095
:10030000C60189DF882361F0B998C19A81E0FF9026
:10031000EF90DF90CF9008958FEF90E01CD0F2CF58
:10032000C198B99AF4CFCBCFB998C19A0000000018
:10033000000086B3869581700895FC01828186173E
:1003400010F063830895828183830895FC011182F4
:1003500010824283F2CFFC01808191811816190628
:100360008CF4228180819181821B91099183808309
:1003700081E0238140815181240F352F311D31834C
:100380002083089580E0F5CF1F920F920FB60F9251
:1003900011248F939F93AF93BF938091EE00909120
:1003A000EF00A091F000B091F1000196A11DB11DE8
:1003B0008093EE009093EF00A093F000B093F100D3
:1003C000BF91AF919F918F910F900FBE0F901F9093
:1003D000189583E68093640091E09093630089BD53
:1003E00062E080E0B4D063E080E08DD041E060E086
:1003F00080E0D6C0F89482B78093ED006091EE0063
:100400007091EF008091F0009091F1007894089540
:100410008F929F92AF92BF92CF92DF92EF92FF9214
:10042000CF93DF934B015C01EA01E4DF6B017C01B8
:10043000E1DF6C197D098E099F09681579058A0528
:100440009B0558F0DF91CF91FF90EF90DF90CF9018
:10045000BF90AF909F908F900895209749F3FE0131
:100460000995E6CF8091ED0090E064E670E038D227
:100470006091640070E051D2862F0895843008F0B6
:100480003EC06F3008F03DC08295807F862B50E0E3
:100490009A0194E0220F331F9A95E1F7522F50737F
:1004A0004295440F440F407C24E030E061E0962FF9
:1004B000906F9823792F7F7099F09230B9F020F4E3
:1004C000913051F083E008959131A1F09231D1F74C
:1004D00090B79F7C952B11C09AB59F73942B9ABDB2
:1004E000660F2150310919F780E008959AB59F7C75
:1004F000952BF5CF90B79F73942B90BFF1CF81E0F0
:10050000089582E00895823040F46630B9F038F4FE
:10051000662391F092E0633039F081E0089568300D
:1005200079F095E06A30C9F7813061F083B7887F50
:10053000982B93BF80E0089591E0F6CF93E0F4CF3D
:1005400094E0F2CF80B7887F982B90BFF3CF6430D0
:1005500090F4811110C09AB560FF09C091609ABDF6
:1005600066959AB5662329F092609ABD08959E7F9C
:10057000F6CF9D7FFACF81E00895CF93DF93C82F08
:10058000D62F642FE4DF882321F08061DF91CF91A3
:1005900008956D2F8C2FB7DF8823C1F38062F6CFCB
:1005A0008430C8F56230C8F5982F9295907F690F16
:1005B0004423A9F1F8946130B1F038F06031E1F0F2
:1005C000613119F143E0842F089589B7806189BFB3
:1005D00088B7806188BF4423B1F3789440E0F3CFBB
:1005E00089B78F7EF4CF89B7886089BF88B7886064
:1005F000F1CF89B7877FF9CF89B7806489BF88B782
:100600008064E8CF89B78F7BF9CF89B7806289BFD3
:1006100088B78062DFCF41E0D6CF42E0D4CF6130EF
:1006200041F3F0F2603171F3613161F689B78F7D8A
:10063000EECFF894882321F0813059F081E00895BD
:1006400089B7826089BF88B7826088BF789480E06C
:10065000089589B7846089BF88B78460F6CF109207
:10066000F90080EE8EB988EA8DB9C09AC29AB8981E
:10067000BA9A089581E08093F90080E48EB988EFFA
:100680008DB98FE88EB90895EACF1F920F920FB6F9
:100690000F9211242F933F934F935F936F937F9308
:1006A0008F939F93AF93BF93EF93FF938091F50048
:1006B0008F5F8093F500B898BA9ADCDFFF91EF91D5
:1006C000BF91AF919F918F917F916F915F914F916A
:1006D0003F912F910F900FBE0F901F9018951F9272
:1006E0000F920FB60F9211242F933F934F935F9366
:1006F0006F937F938F939F93AF93BF93EF93FF93EA
:100700008091F900823009F450C020F4813049F121
:1007100087E724C02091F800833009F45DC084305D
:10072000B9F79091F3009F5F9093F3002111C1C03E
:100730008FB12091F400203509F0A1C0913009F06B
:100740008EC08F778093FA008091F6008093F50039
:100750008FE38FB9B89A8EE48EB983E08093F90065
:1007600005C082E08093F90080EC8EB98091F8009A
:10077000882351F08091F900843031F48091F400A5
:10078000803511F480E044DDFF91EF91BF91AF918E
:100790009F918F917F916F915F914F913F912F9199
:1007A0000F900FBE0F901F9018951092F3008FB10D
:1007B000982F91709093F80086958093F40080357F
:1007C00011F0803639F41FB8B89A83E08093F900AD
:1007D0008EE4CBCF44DFCACF211106C0B89884E0A5
:1007E0008093F90080E4C1CF8FB181709091F300C4
:1007F000992329F09091F500905F9093F500811175
:100800002BC08091F4008035A1F48091FA00E82F8C
:10081000F0E0EA59FF4F90811092F2008F5F80382C
:1008200029F08093FA009FB9B89AD9CF1092FA00B4
:10083000FACF9FEF8036B9F78091FB00E82FF0E008
:10084000E450FF4F90818F5F833019F08093FB005D
:10085000EACF1092FB00E7CF8FEF8FB9E5CF9091F1
:10086000FA00E92FF0E0EA59FF4F80839F5F90384C
:1008700019F09093FA0068CF1092FA0065CF2036F5
:1008800009F062CF21E02093F200913029F463E077
:1008900038D09093FB0058CF9091FB00E92FF0E007
:1008A000E450FF4F80839F5F933099F71092FB00D5
:1008B0004BCFB8988FEF8FB94ECFE6E6F0E080E0EF
:1008C0009191890F90E0E53EF907D1F781958093EA
:1008D000E500089553DC80E037DCC1DEF0DCFECFBC
:1008E0000024552704C0080E591F880F991F009730
:1008F00029F076956795B8F37105B9F7802D952F96
:100900000895991B79E004C0991F961708F0961B6B
:10091000881F7A95C9F780950895AA1BBB1B51E1E2
:1009200007C0AA1FBB1FA617B70710F0A61BB70B5F
:10093000881F991F5A95A9F780959095BC01CD0104
:10094000089597FB072E16F4009406D077FD08D083
:10095000E4DF07FC05D03EF4909581959F4F089504
:0C096000709561957F4F0895F894FFCFCB
:10096C00019C000164FF00FFFFFFFFFFFF0009D1A6
:10097C0001843A00000009110103800000782A5F0D
:10098C009FA9555092240D4A4BA54A006159D1C0DC
:10099C00010101010101010101010101023A80186B
:1009AC0071382D40582C450000000000001E00003E
:1009BC0000FD00305818510F000A20202020202064
:1009CC00000000FE0042656E510A202020202020ED
:1009DC002020000000FC005731303030300A20203D
:0609EC0020202020012E56
:00000001FF
