:100000005FC079C078C077C076C075C074C073C057
:1000100072C071C0C6C16FC06EC047C370C300025A
:1000200003050608090B0C0E101113141617191AE4
:100030001C1D1F202223252628292B2C2E2F313250
:1000400033353638393A3C3D3F40414344454748D3
:10005000494A4C4D4E4F51525354555658595A5B7C
:100060005C5D5E5F606162636465666768696A6A59
:100070006B6C6D6E6F6F7071717273737475757672
:100080007677787879797A7A7A7B7B7C7C7C7D7DCF
:100090007D7D7E7E7E7E7E7F7F7F7F7F7F7F7F4CAC
:1000A0004344726549446572363620323031382D0A
:1000B00030352D32352030313A33303A3532000088
:1000C00011241FBECFE5D2E0DEBFCDBF10E0A0E619
:1000D000B0E0E6ECFAE002C005900D92A83EB10750
:1000E000D9F721E0A8EEB0E001C01D92A231B2071D
:1000F000E1F780D4E6C484CF60E072E0CFD497FD0E
:100100009E5F8038910584F08F3F910529F024F09F
:10011000803851E095073CF420E031E0A901481B0C
:10012000590BCA01089592500895E6DF97FF05C064
:1001300091958195910921E001C020E0FC01E25EEA
:10014000FF4F8491211181950895811101C081E0B3
:10015000682F70E08CE990E0A1D470936200609306
:100160006100089560916100709162008CE990E0F7
:1001700081D4862F089560E082E091E0ECC0A895DC
:100180000FB6F894A89581B5886181BD11BC0FBEEA
:10019000C198B99A4FEF60E082E091E0E5D08CE938
:1001A00090E0909362008093610020D104B603FE3A
:1001B00006C084E090E0909362008093610004B6F2
:1001C00000FC09C004B602FE06C089E090E09093EE
:1001D00062008093610014BE0895A89520910501E6
:1001E00080916000082E000C990B820F911D8F3FAB
:1001F000910534F08FEF809360008FEF90E00895C9
:10020000181619062CF081E08093600080E090E0E1
:1002100008958093E8000895CF92DF92EF92FF92C5
:100220009C018091E800482F407F982F9F704423C5
:1002300031F0911107C041E04093EE0003C09111ED
:100240001092EE004091EE00442319F0982F929501
:100250009F708091ED00582F56956091EB00709142
:10026000EC00591770F4A901461B570B453C594047
:1002700048F13093EC002093EB008F5F8093ED000A
:1002800021C06901C61AD70AE12CF12C80E29EE454
:10029000A0E0B0E0042E04C0880F991FAA1FBB1F66
:1002A0000A94D2F78C159D05AE05BF0558F410923F
:1002B000ED003093EC002093EB0081E0411180E0F1
:1002C0008093EE008091ED0080958170FF90EF901B
:1002D000DF90CF900895CF92DF92EF92FF9297D068
:1002E0006B017C018091E9009091EA009601281B46
:1002F000390B80916100909162008217930748F456
:10030000D092EA00C092E90068DF682F82E091E0B5
:1003100022D08091E800882319F0C6017DDF03C058
:1003200082E091E026D0882321F0B998C19A81E03B
:1003300003C0C198B99A80E0FF90EF90DF90CF9012
:100340000895C9CFB998C19A00000000000086B393
:10035000869581700895FC018281861710F0638371
:100360000895828183830895FC0111821082428363
:10037000F2CFFC0180819181181619064CF422817C
:1003800080819181821B91099183808381E001C0EA
:1003900080E0938120813181290F311D31832083B9
:1003A00008951F920F920FB60F9211248F939F936F
:1003B000AF93BF938091F0009091F100A091F20073
:1003C000B091F3000196A11DB11D8093F0009093B0
:1003D000F100A093F200B093F300BF91AF919F9111
:1003E0008F910F900FBE0F901F90189583E680930A
:1003F000640091E09093630089BD62E080E0B4D036
:1004000063E080E08CD041E060E080E0D9C0F89407
:1004100082B78093EF006091F0007091F1008091BD
:10042000F2009091F300789408958F929F92AF928A
:10043000BF92CF92DF92EF92FF92CF93DF934B0167
:100440005C01EA01E4DF6B017C01E1DFDC01CB014F
:100450008C199D09AE09BF0988159905AA05BB0528
:1004600028F4209791F3FE010995EFCFDF91CF910A
:10047000FF90EF90DF90CF90BF90AF909F908F90C4
:1004800008958091EF0090E064E670E0D6D260912C
:10049000640070E0EFD2862F08958430D0F56F307D
:1004A000D0F58295807F682B50E0742F7295770F7E
:1004B000770F707C84E0440F551F8A95E1F74073F5
:1004C00024E030E081E0982F906F9623592F5F70E1
:1004D000D1F0923079F030F49130F9F49AB59F73FD
:1004E000972B0BC0913159F09231B9F490B79F7CA2
:1004F000942B08C09AB59F7C942B9ABD04C090B7EA
:100500009F73972B90BF880F21503109E1F680E04F
:10051000089581E0089582E0089583E0089582308F
:1005200008F5663069F030F4662371F06330D1F479
:1005300092E00BC0683031F06A30A1F495E005C05C
:1005400093E003C094E001C091E0813029F083B7CB
:10055000887F982B93BF04C080B7887F982B90BF6B
:1005600080E0089581E00895643098F4811111C00D
:100570008AB560FF02C0816001C08E7F8ABD66952A
:100580008AB5662311F0826001C08D7F8ABD80E04C
:10059000089581E00895CF93DF93C82FD62F642F5D
:1005A000E3DF882311F0806108C06D2F8C2FB7DF47
:1005B000882311F0806201C080E0DF91CF9108951F
:1005C000843030F5623030F58295807F680F4423A7
:1005D00061F0F894613091F028F0603159F16131A7
:1005E00091F11CC089B7806105C0613001F1C0F490
:1005F00089B78F7E89BF88B7806105C089B7886059
:1006000089BF88B7886088BF442331F0789404C0DC
:1006100081E0089582E0089580E0089583E00895E0
:10062000603159F06131D1F789B78F7D0EC089B73C
:10063000877FE6CF89B7806402C089B78F7B89BF87
:1006400088B78064E0CF89B7806289BF88B780624D
:10065000DACFF894882341F0813079F489B7846047
:1006600089BF88B7846005C089B7826089BF88B7B1
:10067000826088BF789480E0089581E008951092A8
:10068000FB0080EE8EB988EA8DB9C09AC29AB898FC
:10069000BA9A089581E08093FB0080E48EB988EFD8
:1006A0008DB98FE88EB90895EACF1F920F920FB6D9
:1006B0000F9211242F933F934F935F936F937F93E8
:1006C0008F939F93AF93BF93EF93FF938091F70026
:1006D0008F5F8093F700B898BA9ADCDFFF91EF91B3
:1006E000BF91AF919F918F917F916F915F914F914A
:1006F0003F912F910F900FBE0F901F9018951F9252
:100700000F920FB60F9211242F933F934F935F9345
:100710006F937F938F939F93AF93BF93EF93FF93C9
:100720008091FB00823089F040F4813009F0B2C042
:1007300082E08093FB0080EC1CC02091FA008330A3
:10074000E1F0843009F45AC0A5C01092F5008FB1D1
:10075000982F91709093FA0086958093F6008035DB
:1007600011F0803641F41FB8B89A83E08093FB0003
:100770008EE48EB992C083DF90C0211102C0B89878
:1007800038C08FB181709091F500992329F0909134
:10079000F700905F9093F700811128C08091F600D8
:1007A000803591F49091FC00E92FF0E0E859FF4F7B
:1007B00080811092F4009F5F903819F09093FC00B4
:1007C00016C01092FC0013C0803681F49091FD0099
:1007D000E92FF0E0E250FF4F80819F5F933019F0E6
:1007E0009093FD0004C01092FD0001C08FEF8FB9FF
:1007F000B89A84E08093FB0080E4BBCF9091F50031
:100800009F5F9093F50021113EC08FB12091F600BB
:100810002035A9F4913011F48F770BC09091FC0032
:10082000E92FF0E0E859FF4F808381E0890F80389D
:1008300019F08093FC001FC01092FC001CC02036F1
:10084000D1F421E02093F400913029F463E006D143
:100850009093FD0010C09091FD00E92FF0E0E25070
:10086000FF4F808381E0890F833019F08093FD0072
:1008700002C01092FD008091F8008093F7008FE392
:100880008FB9B89A03C0B8988FEF8FB98EE48EB93C
:1008900083E001C087E78093FB008091FA00882302
:1008A00051F08091FB00843031F48091F600803566
:1008B00011F480E0AEDCFF91EF91BF91AF919F9179
:1008C0008F917F916F915F914F913F912F910F90F9
:1008D0000FBE0F901F901895E8E6F0E080E0919130
:1008E000890F90E0E73EF907D1F781958093E70003
:1008F00008950F931F93CF93DF9306E011E0C0E0BC
:10090000D0E0FE01E250FF4F80816081C80123DD0D
:1009100021960C5F1F4FC330D10599F786E091E017
:1009200028DD882311F0C49801C0C49A8AE091E0C0
:1009300020DD882311F0C39801C0C39A8EE091E0B6
:1009400018DD882311F0C19801C0C19ADF91CF91C1
:100950001F910F910895809101018F5F8093010194
:100960008F3F49F4809165009091660001969093C5
:100970006600809365008091650090916600811506
:10098000934021F4109266001092650080916500FA
:1009900090916600811542E0940734F480589109E3
:1009A000C4DB81588093FE008091650090916600C1
:1009B0009C01215031402F3F314030F4805891400C
:1009C000B4DB81588093FF008091650090916600B0
:1009D000813022E092071CF08058924006C08F3F81
:1009E000910509F034F480589F4F9FDB8158809324
:1009F00000017FCFC6E0D1E04FEF60E0CE01B4DC74
:100A0000249681E0C231D807B9F7B9DB80E09DDBDD
:100A100063DF35DEBC9ABB9AC49AC39A8091F40016
:100A2000811108C08091E800882311F054DCF6CFD2
:100A300092DFF4CFB99A5DDFF1CF0024552704C0CF
:100A4000080E591F880F991F009729F07695679512
:100A5000B8F37105B9F7802D952F0895991B79E0AA
:100A600004C0991F961708F0961B881F7A95C9F73E
:100A700080950895AA1BBB1B51E107C0AA1FBB1F8D
:100A8000A617B70710F0A61BB70B881F991F5A951A
:100A9000A9F780959095BC01CD01089597FB072E8D
:100AA00016F4009406D077FD08D0E4DF07FC05D0EB
:100AB0003EF4909581959F4F0895709561957F4F75
:060AC0000895F894FFCF39
:100AC600019C0001640200FF00FFFFFFFFFFFF0023
:100AD60034A8660100000000001C0103801912788A
:100AE6000AAF4095564A8F25205054000000010158
:100AF6000101010101010101010101010101D020F2
:100B06000080502027302040F800F5B8000000187B
:100B160000000010000000000000000000000000BF
:100B260000000000001000000000000000000000AF
:100B360000000000000000FC006D65684C54443164
:080B460032314B4D374B0075B5
:00000001FF
