:100000005FC079C078C077C076C075C074C073C057
:1000100072C071C0B9C16FC06EC037C360C3000287
:1000200003050608090B0C0E101113141617191AE4
:100030001C1D1F202223252628292B2C2E2F313250
:1000400033353638393A3C3D3F40414344454748D3
:10005000494A4C4D4E4F51525354555658595A5B7C
:100060005C5D5E5F606162636465666768696A6A59
:100070006B6C6D6E6F6F7071717273737475757672
:100080007677787879797A7A7A7B7B7C7C7C7D7DCF
:100090007D7D7E7E7E7E7E7F7F7F7F7F7F7F7F4CAC
:1000A0004344726549446572363620323032352D0C
:1000B00030392D32352032323A35363A3539000072
:1000C00011241FBECFE5D2E0DEBFCDBF10E0A0E619
:1000D000B0E0E8EAFAE002C005900D92A83EB10750
:1000E000D9F721E0A8EEB0E001C01D92A231B2071D
:1000F000E1F76DD4D7C484CF60E072E0C0D497FD3F
:100100009E5F8038910584F08F3F910509F03CF4A3
:1001100020E031E0A901481B590BCA01089580383D
:1001200051E09507ACF392500895E6DF20E097FF89
:1001300004C091958195910921E0825E9F4FFC0159
:100140008491211181950895811101C081E0682F6A
:1001500070E08CE990E093D470936200609361004A
:10016000089560916100709162008CE990E073D411
:10017000862F089560E082E091E0DFC0A8950FB679
:10018000F894A89581B5886181BD11BC0FBEC19856
:10019000B99A4FEF60E082E091E0D8D08CE990E02E
:1001A000909362008093610014D104B603FE06C0F0
:1001B00084E090E0909362008093610004B600FCBC
:1001C00009C004B602FE06C089E090E09093620088
:1001D0008093610014BE0895A89580910501209137
:1001E0006000022E000C330B820F932F911D8F3F66
:1001F000910534F08FEF809360008FEF90E00895C9
:100200001816190624F081E08093600080E00895BC
:100210008093E8000895FC018091E800282F2F705A
:10022000982F907F31F0211107C091E09093EE005C
:1002300003C021111092EE003091EE00332319F02B
:10024000282F22952F709091ED004091EB00509156
:10025000EC00BF01641B750BAB01892F86958217DB
:1002600078F4453C594038F0F093EC00E093EB0013
:100270009F5F9093ED008091ED00809581700895CF
:1002800070E060E080E29EE4A0E0B0E0032E04C0F5
:10029000880F991FAA1FBB1F0A94D2F784179507CE
:1002A000A607B70740F71092ED00F093EC00E0933B
:1002B000EB0081E0311180E08093EE00DCCFCF9243
:1002C000DF92EF92FF9296D06B018091E9009091BE
:1002D000EA009601281B390B809161009091620021
:1002E0008217930748F4D092EA00C092E90074DFC5
:1002F000682F82E091E021D08091E800882361F0AE
:10030000C60189DF882361F0B998C19A81E0FF9026
:10031000EF90DF90CF90089582E091E01CD0F2CF73
:10032000C198B99AF4CFCBCFB998C19A0000000018
:10033000000086B3869581700895FC01828186173E
:1003400010F063830895828183830895FC011182F4
:1003500010824283F2CFFC01808191811816190628
:100360008CF4228180819181821B91099183808309
:1003700081E0238140815181240F352F311D31834C
:100380002083089580E0F5CF1F920F920FB60F9251
:1003900011248F939F93AF93BF938091F00090911E
:1003A000F100A091F200B091F3000196A11DB11DE2
:1003B0008093F0009093F100A093F200B093F300CB
:1003C000BF91AF919F918F910F900FBE0F901F9093
:1003D000189583E68093640091E09093630089BD53
:1003E00062E080E0B4D063E080E08DD041E060E086
:1003F00080E0D6C0F89482B78093EF006091F0005F
:100400007091F1008091F2009091F300789408953A
:100410008F929F92AF92BF92CF92DF92EF92FF9214
:10042000CF93DF934B015C01EA01E4DF6B017C01B8
:10043000E1DF6C197D098E099F09681579058A0528
:100440009B0558F0DF91CF91FF90EF90DF90CF9018
:10045000BF90AF909F908F900895209749F3FE0131
:100460000995E6CF8091EF0090E064E670E0D6D287
:100470006091640070E0EFD2862F0895843008F018
:100480003EC06F3008F03DC08295807F862B50E0E3
:100490009A0194E0220F331F9A95E1F7522F50737F
:1004A0004295440F440F407C24E030E061E0962FF9
:1004B000906F9823792F7F7099F09230B9F020F4E3
:1004C000913051F083E008959131A1F09231D1F74C
:1004D00090B79F7C952B11C09AB59F73942B9ABDB2
:1004E000660F2150310919F780E008959AB59F7C75
:1004F000952BF5CF90B79F73942B90BFF1CF81E0F0
:10050000089582E00895823040F46630B9F038F4FE
:10051000662391F092E0633039F081E0089568300D
:1005200079F095E06A30C9F7813061F083B7887F50
:10053000982B93BF80E0089591E0F6CF93E0F4CF3D
:1005400094E0F2CF80B7887F982B90BFF3CF6430D0
:1005500090F4811110C09AB560FF09C091609ABDF6
:1005600066959AB5662329F092609ABD08959E7F9C
:10057000F6CF9D7FFACF81E00895CF93DF93C82F08
:10058000D62F642FE4DF882321F08061DF91CF91A3
:1005900008956D2F8C2FB7DF8823C1F38062F6CFCB
:1005A0008430C8F56230C8F5982F9295907F690F16
:1005B0004423A9F1F8946130B1F038F06031E1F0F2
:1005C000613119F143E0842F089589B7806189BFB3
:1005D00088B7806188BF4423B1F3789440E0F3CFBB
:1005E00089B78F7EF4CF89B7886089BF88B7886064
:1005F000F1CF89B7877FF9CF89B7806489BF88B782
:100600008064E8CF89B78F7BF9CF89B7806289BFD3
:1006100088B78062DFCF41E0D6CF42E0D4CF6130EF
:1006200041F3F0F2603171F3613161F689B78F7D8A
:10063000EECFF894882321F0813059F081E00895BD
:1006400089B7826089BF88B7826088BF789480E06C
:10065000089589B7846089BF88B78460F6CF109207
:10066000FB0080EE8EB988EA8DB9C09AC29AB8981C
:10067000BA9A089581E08093FB0080E48EB988EFF8
:100680008DB98FE88EB90895EACF1F920F920FB6F9
:100690000F9211242F933F934F935F936F937F9308
:1006A0008F939F93AF93BF93EF93FF938091F70046
:1006B0008F5F8093F700B898BA9ADCDFFF91EF91D3
:1006C000BF91AF919F918F917F916F915F914F916A
:1006D0003F912F910F900FBE0F901F9018951F9272
:1006E0000F920FB60F9211242F933F934F935F9366
:1006F0006F937F938F939F93AF93BF93EF93FF93EA
:100700008091FB00823009F450C020F4813049F11F
:1007100087E724C02091FA00833009F45DC084305B
:10072000B9F79091F5009F5F9093F5002111C1C03A
:100730008FB12091F600203509F0A1C0913009F069
:100740008EC08F778093FC008091F8008093F70033
:100750008FE38FB9B89A8EE48EB983E08093FB0063
:1007600005C082E08093FB0080EC8EB98091FA0096
:10077000882351F08091FB00843031F48091F600A1
:10078000803511F480E044DDFF91EF91BF91AF918E
:100790009F918F917F916F915F914F913F912F9199
:1007A0000F900FBE0F901F9018951092F5008FB10B
:1007B000982F91709093FA0086958093F60080357B
:1007C00011F0803639F41FB8B89A83E08093FB00AB
:1007D0008EE4CBCF44DFCACF211106C0B89884E0A5
:1007E0008093FB0080E4C1CF8FB181709091F500C0
:1007F000992329F09091F700905F9093F700811171
:100800002BC08091F6008035A1F48091FC00E82F88
:10081000F0E0E859FF4F90811092F4008F5F80382C
:1008200029F08093FC009FB9B89AD9CF1092FC00B0
:10083000FACF9FEF8036B9F78091FD00E82FF0E006
:10084000E250FF4F90818F5F833019F08093FD005D
:10085000EACF1092FD00E7CF8FEF8FB9E5CF9091EF
:10086000FC00E92FF0E0E859FF4F80839F5F90384C
:1008700019F09093FC0068CF1092FC0065CF2036F1
:1008800009F062CF21E02093F400913029F463E075
:10089000D6D09093FD0058CF9091FD00E92FF0E065
:1008A000E250FF4F80839F5F933099F71092FD00D5
:1008B0004BCFB8988FEF8FB94ECFE8E6F0E080E0ED
:1008C0009191890F90E0E73EF907D1F781958093E8
:1008D000E70008958091FE006091FE0086E091E0BF
:1008E0002CDD8091FF006091FF008AE091E025DD22
:1008F00080910001609100018EE091E01EDD86E0B4
:1009000091E029DD882371F0C4988AE091E023DD2D
:10091000882351F0C3988EE091E01DDD882331F0EB
:10092000C1980895C49AF1CFC39AF5CFC19A08959A
:10093000809101018F5F809301018F3F49F4809185
:100940006500909166000196909366008093650023
:1009500080916500909166008115934021F410927A
:100960006600109265008091650090916600811587
:1009700042E0940734F480589109D7DB8158809382
:10098000FE0080916500909166009C0121503140ED
:100990002F3F314030F480589140C7DB815880931D
:1009A000FF008091650090916600813022E09207FF
:1009B0003CF080589240B9DB8158809300018ACF87
:1009C0008F3F910509F0DCF780589F4FF4CF4FEF30
:1009D00060E086E091E0BADC4FEF60E08AE091E011
:1009E000B5DC4FEF60E08EE091E0B0DCC7DB80E08B
:1009F000ABDB63DF34DEBC9ABB9AC49AC39A8091A6
:100A0000F400811108C08091E800882311F057DCC0
:100A1000F6CF8EDFF4CFB99A5DDFF1CF00245527F2
:100A200004C0080E591F880F991F009729F076956A
:100A30006795B8F37105B9F7802D952F0895991B27
:100A400079E004C0991F961708F0961B881F7A95C5
:100A5000C9F780950895AA1BBB1B51E107C0AA1FC7
:100A6000BB1FA617B70710F0A61BB70B881F991F4F
:100A70005A95A9F780959095BC01CD01089597FBF3
:100A8000072E16F4009406D077FD08D0E4DF07FCAB
:100A900005D03EF4909581959F4F0895709561958E
:080AA0007F4F0895F894FFCF89
:100AA800019C0001640200FF00FFFFFFFFFFFF0041
:100AB80031D8000000000000051601036D321C78D3
:100AC800EA5EC0A4594A9825205054000000D1C0BD
:100AD8000101010101010101010101010101023AC4
:100AE800801871382D40582C4500F4191100001E4B
:100AF800000000FF004C696E75782023300A202022
:100B08002020000000FD003B3D42440F000A202049
:100B180020202020000000FC004C696E75782046DB
:080B280048440A2020200005CA
:00000001FF
